{
  "_format": "hh-sol-artifact-1",
  "contractName": "KamiCodeCredentials",
  "sourceName": "contracts/KamiCodeCredentials.sol",
  "abi": [
    {
      "inputs": [
        {
          "internalType": "address",
          "name": "initialOwner",
          "type": "address"
        }
      ],
      "stateMutability": "nonpayable",
      "type": "constructor"
    },
    {
      "inputs": [
        {
          "internalType": "address",
          "name": "sender",
          "type": "address"
        },
        {
          "internalType": "uint256",
          "name": "tokenId",
          "type": "uint256"
        },
        {
          "internalType": "address",
          "name": "owner",
          "type": "address"
        }
      ],
      "name": "ERC721IncorrectOwner",
      "type": "error"
    },
    {
      "inputs": [
        {
          "internalType": "address",
          "name": "operator",
          "type": "address"
        },
        {
          "internalType": "uint256",
          "name": "tokenId",
          "type": "uint256"
        }
      ],
      "name": "ERC721InsufficientApproval",
      "type": "error"
    },
    {
      "inputs": [
        {
          "internalType": "address",
          "name": "approver",
          "type": "address"
        }
      ],
      "name": "ERC721InvalidApprover",
      "type": "error"
    },
    {
      "inputs": [
        {
          "internalType": "address",
          "name": "operator",
          "type": "address"
        }
      ],
      "name": "ERC721InvalidOperator",
      "type": "error"
    },
    {
      "inputs": [
        {
          "internalType": "address",
          "name": "owner",
          "type": "address"
        }
      ],
      "name": "ERC721InvalidOwner",
      "type": "error"
    },
    {
      "inputs": [
        {
          "internalType": "address",
          "name": "receiver",
          "type": "address"
        }
      ],
      "name": "ERC721InvalidReceiver",
      "type": "error"
    },
    {
      "inputs": [
        {
          "internalType": "address",
          "name": "sender",
          "type": "address"
        }
      ],
      "name": "ERC721InvalidSender",
      "type": "error"
    },
    {
      "inputs": [
        {
          "internalType": "uint256",
          "name": "tokenId",
          "type": "uint256"
        }
      ],
      "name": "ERC721NonexistentToken",
      "type": "error"
    },
    {
      "inputs": [
        {
          "internalType": "address",
          "name": "owner",
          "type": "address"
        }
      ],
      "name": "OwnableInvalidOwner",
      "type": "error"
    },
    {
      "inputs": [
        {
          "internalType": "address",
          "name": "account",
          "type": "address"
        }
      ],
      "name": "OwnableUnauthorizedAccount",
      "type": "error"
    },
    {
      "anonymous": false,
      "inputs": [
        {
          "indexed": true,
          "internalType": "address",
          "name": "to",
          "type": "address"
        },
        {
          "indexed": true,
          "internalType": "uint256",
          "name": "tokenId",
          "type": "uint256"
        },
        {
          "indexed": false,
          "internalType": "string",
          "name": "achievementType",
          "type": "string"
        },
        {
          "indexed": false,
          "internalType": "string",
          "name": "uri",
          "type": "string"
        }
      ],
      "name": "AchievementMinted",
      "type": "event"
    },
    {
      "anonymous": false,
      "inputs": [
        {
          "indexed": true,
          "internalType": "address",
          "name": "owner",
          "type": "address"
        },
        {
          "indexed": true,
          "internalType": "address",
          "name": "approved",
          "type": "address"
        },
        {
          "indexed": true,
          "internalType": "uint256",
          "name": "tokenId",
          "type": "uint256"
        }
      ],
      "name": "Approval",
      "type": "event"
    },
    {
      "anonymous": false,
      "inputs": [
        {
          "indexed": true,
          "internalType": "address",
          "name": "owner",
          "type": "address"
        },
        {
          "indexed": true,
          "internalType": "address",
          "name": "operator",
          "type": "address"
        },
        {
          "indexed": false,
          "internalType": "bool",
          "name": "approved",
          "type": "bool"
        }
      ],
      "name": "ApprovalForAll",
      "type": "event"
    },
    {
      "anonymous": false,
      "inputs": [
        {
          "indexed": false,
          "internalType": "uint256",
          "name": "_fromTokenId",
          "type": "uint256"
        },
        {
          "indexed": false,
          "internalType": "uint256",
          "name": "_toTokenId",
          "type": "uint256"
        }
      ],
      "name": "BatchMetadataUpdate",
      "type": "event"
    },
    {
      "anonymous": false,
      "inputs": [
        {
          "indexed": false,
          "internalType": "uint256",
          "name": "_tokenId",
          "type": "uint256"
        }
      ],
      "name": "MetadataUpdate",
      "type": "event"
    },
    {
      "anonymous": false,
      "inputs": [
        {
          "indexed": true,
          "internalType": "address",
          "name": "previousOwner",
          "type": "address"
        },
        {
          "indexed": true,
          "internalType": "address",
          "name": "newOwner",
          "type": "address"
        }
      ],
      "name": "OwnershipTransferred",
      "type": "event"
    },
    {
      "anonymous": false,
      "inputs": [
        {
          "indexed": true,
          "internalType": "address",
          "name": "from",
          "type": "address"
        },
        {
          "indexed": true,
          "internalType": "address",
          "name": "to",
          "type": "address"
        },
        {
          "indexed": true,
          "internalType": "uint256",
          "name": "tokenId",
          "type": "uint256"
        }
      ],
      "name": "Transfer",
      "type": "event"
    },
    {
      "inputs": [
        {
          "internalType": "address",
          "name": "to",
          "type": "address"
        },
        {
          "internalType": "uint256",
          "name": "tokenId",
          "type": "uint256"
        }
      ],
      "name": "approve",
      "outputs": [],
      "stateMutability": "nonpayable",
      "type": "function"
    },
    {
      "inputs": [
        {
          "internalType": "address",
          "name": "owner",
          "type": "address"
        }
      ],
      "name": "balanceOf",
      "outputs": [
        {
          "internalType": "uint256",
          "name": "",
          "type": "uint256"
        }
      ],
      "stateMutability": "view",
      "type": "function"
    },
    {
      "inputs": [
        {
          "internalType": "uint256",
          "name": "tokenId",
          "type": "uint256"
        }
      ],
      "name": "getApproved",
      "outputs": [
        {
          "internalType": "address",
          "name": "",
          "type": "address"
        }
      ],
      "stateMutability": "view",
      "type": "function"
    },
    {
      "inputs": [
        {
          "internalType": "address",
          "name": "owner",
          "type": "address"
        },
        {
          "internalType": "address",
          "name": "operator",
          "type": "address"
        }
      ],
      "name": "isApprovedForAll",
      "outputs": [
        {
          "internalType": "bool",
          "name": "",
          "type": "bool"
        }
      ],
      "stateMutability": "view",
      "type": "function"
    },
    {
      "inputs": [
        {
          "internalType": "address",
          "name": "to",
          "type": "address"
        },
        {
          "internalType": "string",
          "name": "achievementType",
          "type": "string"
        },
        {
          "internalType": "string",
          "name": "uri",
          "type": "string"
        }
      ],
      "name": "mintAchievement",
      "outputs": [
        {
          "internalType": "uint256",
          "name": "",
          "type": "uint256"
        }
      ],
      "stateMutability": "nonpayable",
      "type": "function"
    },
    {
      "inputs": [],
      "name": "name",
      "outputs": [
        {
          "internalType": "string",
          "name": "",
          "type": "string"
        }
      ],
      "stateMutability": "view",
      "type": "function"
    },
    {
      "inputs": [],
      "name": "owner",
      "outputs": [
        {
          "internalType": "address",
          "name": "",
          "type": "address"
        }
      ],
      "stateMutability": "view",
      "type": "function"
    },
    {
      "inputs": [
        {
          "internalType": "uint256",
          "name": "tokenId",
          "type": "uint256"
        }
      ],
      "name": "ownerOf",
      "outputs": [
        {
          "internalType": "address",
          "name": "",
          "type": "address"
        }
      ],
      "stateMutability": "view",
      "type": "function"
    },
    {
      "inputs": [],
      "name": "renounceOwnership",
      "outputs": [],
      "stateMutability": "nonpayable",
      "type": "function"
    },
    {
      "inputs": [
        {
          "internalType": "address",
          "name": "from",
          "type": "address"
        },
        {
          "internalType": "address",
          "name": "to",
          "type": "address"
        },
        {
          "internalType": "uint256",
          "name": "tokenId",
          "type": "uint256"
        }
      ],
      "name": "safeTransferFrom",
      "outputs": [],
      "stateMutability": "nonpayable",
      "type": "function"
    },
    {
      "inputs": [
        {
          "internalType": "address",
          "name": "from",
          "type": "address"
        },
        {
          "internalType": "address",
          "name": "to",
          "type": "address"
        },
        {
          "internalType": "uint256",
          "name": "tokenId",
          "type": "uint256"
        },
        {
          "internalType": "bytes",
          "name": "data",
          "type": "bytes"
        }
      ],
      "name": "safeTransferFrom",
      "outputs": [],
      "stateMutability": "nonpayable",
      "type": "function"
    },
    {
      "inputs": [
        {
          "internalType": "address",
          "name": "operator",
          "type": "address"
        },
        {
          "internalType": "bool",
          "name": "approved",
          "type": "bool"
        }
      ],
      "name": "setApprovalForAll",
      "outputs": [],
      "stateMutability": "nonpayable",
      "type": "function"
    },
    {
      "inputs": [
        {
          "internalType": "bytes4",
          "name": "interfaceId",
          "type": "bytes4"
        }
      ],
      "name": "supportsInterface",
      "outputs": [
        {
          "internalType": "bool",
          "name": "",
          "type": "bool"
        }
      ],
      "stateMutability": "view",
      "type": "function"
    },
    {
      "inputs": [],
      "name": "symbol",
      "outputs": [
        {
          "internalType": "string",
          "name": "",
          "type": "string"
        }
      ],
      "stateMutability": "view",
      "type": "function"
    },
    {
      "inputs": [
        {
          "internalType": "uint256",
          "name": "tokenId",
          "type": "uint256"
        }
      ],
      "name": "tokenURI",
      "outputs": [
        {
          "internalType": "string",
          "name": "",
          "type": "string"
        }
      ],
      "stateMutability": "view",
      "type": "function"
    },
    {
      "inputs": [
        {
          "internalType": "address",
          "name": "from",
          "type": "address"
        },
        {
          "internalType": "address",
          "name": "to",
          "type": "address"
        },
        {
          "internalType": "uint256",
          "name": "tokenId",
          "type": "uint256"
        }
      ],
      "name": "transferFrom",
      "outputs": [],
      "stateMutability": "nonpayable",
      "type": "function"
    },
    {
      "inputs": [
        {
          "internalType": "address",
          "name": "newOwner",
          "type": "address"
        }
      ],
      "name": "transferOwnership",
      "outputs": [],
      "stateMutability": "nonpayable",
      "type": "function"
    }
  ],
  "bytecode": "0x60806040523480156200001157600080fd5b5060405162002daa38038062002daa833981810160405281019062000037919062000288565b806040518060400160405280601481526020017f4b616d69436f64652043726564656e7469616c730000000000000000000000008152506040518060400160405280600881526020017f4b414d49435245440000000000000000000000000000000000000000000000008152508160009081620000b5919062000534565b508060019081620000c7919062000534565b505050600073ffffffffffffffffffffffffffffffffffffffff168173ffffffffffffffffffffffffffffffffffffffff16036200013f5760006040517f1e4fbdf70000000000000000000000000000000000000000000000000000000081526004016200013691906200062c565b60405180910390fd5b62000150816200015860201b60201c565b505062000649565b6000600760009054906101000a900473ffffffffffffffffffffffffffffffffffffffff16905081600760006101000a81548173ffffffffffffffffffffffffffffffffffffffff021916908373ffffffffffffffffffffffffffffffffffffffff1602179055508173ffffffffffffffffffffffffffffffffffffffff168173ffffffffffffffffffffffffffffffffffffffff167f8be0079c531659141344cd1fd0a4f28419497f9722a3daafe3b4186f6b6457e060405160405180910390a35050565b600080fd5b600073ffffffffffffffffffffffffffffffffffffffff82169050919050565b6000620002508262000223565b9050919050565b620002628162000243565b81146200026e57600080fd5b50565b600081519050620002828162000257565b92915050565b600060208284031215620002a157620002a06200021e565b5b6000620002b18482850162000271565b91505092915050565b600081519050919050565b7f4e487b7100000000000000000000000000000000000000000000000000000000600052604160045260246000fd5b7f4e487b7100000000000000000000000000000000000000000000000000000000600052602260045260246000fd5b600060028204905060018216806200033c57607f821691505b602082108103620003525762000351620002f4565b5b50919050565b60008190508160005260206000209050919050565b60006020601f8301049050919050565b600082821b905092915050565b600060088302620003bc7fffffffffffffffffffffffffffffffffffffffffffffffffffffffffffffffff826200037d565b620003c886836200037d565b95508019841693508086168417925050509392505050565b6000819050919050565b6000819050919050565b6000620004156200040f6200040984620003e0565b620003ea565b620003e0565b9050919050565b6000819050919050565b6200043183620003f4565b6200044962000440826200041c565b8484546200038a565b825550505050565b600090565b6200046062000451565b6200046d81848462000426565b505050565b5b8181101562000495576200048960008262000456565b60018101905062000473565b5050565b601f821115620004e457620004ae8162000358565b620004b9846200036d565b81016020851015620004c9578190505b620004e1620004d8856200036d565b83018262000472565b50505b505050565b600082821c905092915050565b60006200050960001984600802620004e9565b1980831691505092915050565b6000620005248383620004f6565b9150826002028217905092915050565b6200053f82620002ba565b67ffffffffffffffff8111156200055b576200055a620002c5565b5b62000567825462000323565b6200057482828562000499565b600060209050601f831160018114620005ac576000841562000597578287015190505b620005a3858262000516565b86555062000613565b601f198416620005bc8662000358565b60005b82811015620005e657848901518255600182019150602085019450602081019050620005bf565b8683101562000606578489015162000602601f891682620004f6565b8355505b6001600288020188555050505b505050505050565b620006268162000243565b82525050565b60006020820190506200064360008301846200061b565b92915050565b61275180620006596000396000f3fe608060405234801561001057600080fd5b506004361061010b5760003560e01c8063715018a6116100a2578063b88d4fde11610071578063b88d4fde146102a4578063c0f8f65d146102c0578063c87b56dd146102f0578063e985e9c514610320578063f2fde38b146103505761010b565b8063715018a6146102425780638da5cb5b1461024c57806395d89b411461026a578063a22cb465146102885761010b565b806323b872dd116100de57806323b872dd146101aa57806342842e0e146101c65780636352211e146101e257806370a08231146102125761010b565b806301ffc9a71461011057806306fdde0314610140578063081812fc1461015e578063095ea7b31461018e575b600080fd5b61012a60048036038101906101259190611b43565b61036c565b6040516101379190611b8b565b60405180910390f35b61014861037e565b6040516101559190611c36565b60405180910390f35b61017860048036038101906101739190611c8e565b610410565b6040516101859190611cfc565b60405180910390f35b6101a860048036038101906101a39190611d43565b61042c565b005b6101c460048036038101906101bf9190611d83565b610442565b005b6101e060048036038101906101db9190611d83565b610544565b005b6101fc60048036038101906101f79190611c8e565b610564565b6040516102099190611cfc565b60405180910390f35b61022c60048036038101906102279190611dd6565b610576565b6040516102399190611e12565b60405180910390f35b61024a610630565b005b610254610644565b6040516102619190611cfc565b60405180910390f35b61027261066e565b60405161027f9190611c36565b60405180910390f35b6102a2600480360381019061029d9190611e59565b610700565b005b6102be60048036038101906102b99190611fce565b610716565b005b6102da60048036038101906102d591906120f2565b610733565b6040516102e79190611e12565b60405180910390f35b61030a60048036038101906103059190611c8e565b6107c8565b6040516103179190611c36565b60405180910390f35b61033a6004803603810190610335919061217d565b6107da565b6040516103479190611b8b565b60405180910390f35b61036a60048036038101906103659190611dd6565b61086e565b005b6000610377826108f4565b9050919050565b60606000805461038d906121ec565b80601f01602080910402602001604051908101604052809291908181526020018280546103b9906121ec565b80156104065780601f106103db57610100808354040283529160200191610406565b820191906000526020600020905b8154815290600101906020018083116103e957829003601f168201915b5050505050905090565b600061041b82610955565b50610425826109dd565b9050919050565b61043e8282610439610a1a565b610a22565b5050565b600073ffffffffffffffffffffffffffffffffffffffff168273ffffffffffffffffffffffffffffffffffffffff16036104b45760006040517f64a0ae920000000000000000000000000000000000000000000000000000000081526004016104ab9190611cfc565b60405180910390fd5b60006104c883836104c3610a1a565b610a34565b90508373ffffffffffffffffffffffffffffffffffffffff168173ffffffffffffffffffffffffffffffffffffffff161461053e578382826040517f64283d7b0000000000000000000000000000000000000000000000000000000081526004016105359392919061221d565b60405180910390fd5b50505050565b61055f83838360405180602001604052806000815250610716565b505050565b600061056f82610955565b9050919050565b60008073ffffffffffffffffffffffffffffffffffffffff168273ffffffffffffffffffffffffffffffffffffffff16036105e95760006040517f89c62b640000000000000000000000000000000000000000000000000000000081526004016105e09190611cfc565b60405180910390fd5b600360008373ffffffffffffffffffffffffffffffffffffffff1673ffffffffffffffffffffffffffffffffffffffff168152602001908152602001600020549050919050565b610638610c4e565b6106426000610cd5565b565b6000600760009054906101000a900473ffffffffffffffffffffffffffffffffffffffff16905090565b60606001805461067d906121ec565b80601f01602080910402602001604051908101604052809291908181526020018280546106a9906121ec565b80156106f65780601f106106cb576101008083540402835291602001916106f6565b820191906000526020600020905b8154815290600101906020018083116106d957829003601f168201915b5050505050905090565b61071261070b610a1a565b8383610d9b565b5050565b610721848484610442565b61072d84848484610f0a565b50505050565b600061073d610c4e565b60006008600081548092919061075290612283565b91905055905061076285826110c1565b61076c81846110df565b808573ffffffffffffffffffffffffffffffffffffffff167f1eb7195194eea07b5eeb1e861d4f7450ed79c85635f55fd4be9edc75bbfe3c9f86866040516107b59291906122cb565b60405180910390a3809150509392505050565b60606107d38261113b565b9050919050565b6000600560008473ffffffffffffffffffffffffffffffffffffffff1673ffffffffffffffffffffffffffffffffffffffff16815260200190815260200160002060008373ffffffffffffffffffffffffffffffffffffffff1673ffffffffffffffffffffffffffffffffffffffff16815260200190815260200160002060009054906101000a900460ff16905092915050565b610876610c4e565b600073ffffffffffffffffffffffffffffffffffffffff168173ffffffffffffffffffffffffffffffffffffffff16036108e85760006040517f1e4fbdf70000000000000000000000000000000000000000000000000000000081526004016108df9190611cfc565b60405180910390fd5b6108f181610cd5565b50565b6000634906490660e01b7bffffffffffffffffffffffffffffffffffffffffffffffffffffffff1916827bffffffffffffffffffffffffffffffffffffffffffffffffffffffff1916148061094e575061094d8261124e565b5b9050919050565b60008061096183611330565b9050600073ffffffffffffffffffffffffffffffffffffffff168173ffffffffffffffffffffffffffffffffffffffff16036109d457826040517f7e2732890000000000000000000000000000000000000000000000000000000081526004016109cb9190611e12565b60405180910390fd5b80915050919050565b60006004600083815260200190815260200160002060009054906101000a900473ffffffffffffffffffffffffffffffffffffffff169050919050565b600033905090565b610a2f838383600161136d565b505050565b600080610a4084611330565b9050600073ffffffffffffffffffffffffffffffffffffffff168373ffffffffffffffffffffffffffffffffffffffff1614610a8257610a81818486611532565b5b600073ffffffffffffffffffffffffffffffffffffffff168173ffffffffffffffffffffffffffffffffffffffff1614610b1357610ac460008560008061136d565b6001600360008373ffffffffffffffffffffffffffffffffffffffff1673ffffffffffffffffffffffffffffffffffffffff168152602001908152602001600020600082825403925050819055505b600073ffffffffffffffffffffffffffffffffffffffff168573ffffffffffffffffffffffffffffffffffffffff1614610b96576001600360008773ffffffffffffffffffffffffffffffffffffffff1673ffffffffffffffffffffffffffffffffffffffff168152602001908152602001600020600082825401925050819055505b846002600086815260200190815260200160002060006101000a81548173ffffffffffffffffffffffffffffffffffffffff021916908373ffffffffffffffffffffffffffffffffffffffff160217905550838573ffffffffffffffffffffffffffffffffffffffff168273ffffffffffffffffffffffffffffffffffffffff167fddf252ad1be2c89b69c2b068fc378daa952ba7f163c4a11628f55a4df523b3ef60405160405180910390a4809150509392505050565b610c56610a1a565b73ffffffffffffffffffffffffffffffffffffffff16610c74610644565b73ffffffffffffffffffffffffffffffffffffffff1614610cd357610c97610a1a565b6040517f118cdaa7000000000000000000000000000000000000000000000000000000008152600401610cca9190611cfc565b60405180910390fd5b565b6000600760009054906101000a900473ffffffffffffffffffffffffffffffffffffffff16905081600760006101000a81548173ffffffffffffffffffffffffffffffffffffffff021916908373ffffffffffffffffffffffffffffffffffffffff1602179055508173ffffffffffffffffffffffffffffffffffffffff168173ffffffffffffffffffffffffffffffffffffffff167f8be0079c531659141344cd1fd0a4f28419497f9722a3daafe3b4186f6b6457e060405160405180910390a35050565b600073ffffffffffffffffffffffffffffffffffffffff168273ffffffffffffffffffffffffffffffffffffffff1603610e0c57816040517f5b08ba18000000000000000000000000000000000000000000000000000000008152600401610e039190611cfc565b60405180910390fd5b80600560008573ffffffffffffffffffffffffffffffffffffffff1673ffffffffffffffffffffffffffffffffffffffff16815260200190815260200160002060008473ffffffffffffffffffffffffffffffffffffffff1673ffffffffffffffffffffffffffffffffffffffff16815260200190815260200160002060006101000a81548160ff0219169083151502179055508173ffffffffffffffffffffffffffffffffffffffff168373ffffffffffffffffffffffffffffffffffffffff167f17307eab39ab6107e8899845ad3d59bd9653f200f220920489ca2b5937696c3183604051610efd9190611b8b565b60405180910390a3505050565b60008373ffffffffffffffffffffffffffffffffffffffff163b11156110bb578273ffffffffffffffffffffffffffffffffffffffff1663150b7a02610f4e610a1a565b8685856040518563ffffffff1660e01b8152600401610f709493929190612357565b6020604051808303816000875af1925050508015610fac57506040513d601f19601f82011682018060405250810190610fa991906123b8565b60015b611030573d8060008114610fdc576040519150601f19603f3d011682016040523d82523d6000602084013e610fe1565b606091505b50600081510361102857836040517f64a0ae9200000000000000000000000000000000000000000000000000000000815260040161101f9190611cfc565b60405180910390fd5b805181602001fd5b63150b7a0260e01b7bffffffffffffffffffffffffffffffffffffffffffffffffffffffff1916817bffffffffffffffffffffffffffffffffffffffffffffffffffffffff1916146110b957836040517f64a0ae920000000000000000000000000000000000000000000000000000000081526004016110b09190611cfc565b60405180910390fd5b505b50505050565b6110db8282604051806020016040528060008152506115f6565b5050565b806006600084815260200190815260200160002090816110ff9190612591565b507ff8e1a15aba9398e019f0b49df1a4fde98ee17ae345cb5f6b5e2c27f5033e8ce78260405161112f9190611e12565b60405180910390a15050565b606061114682610955565b506000600660008481526020019081526020016000208054611167906121ec565b80601f0160208091040260200160405190810160405280929190818152602001828054611193906121ec565b80156111e05780601f106111b5576101008083540402835291602001916111e0565b820191906000526020600020905b8154815290600101906020018083116111c357829003601f168201915b5050505050905060006111f1611612565b90506000815103611206578192505050611249565b60008251111561123b57808260405160200161122392919061269f565b60405160208183030381529060405292505050611249565b61124484611629565b925050505b919050565b60007f80ac58cd000000000000000000000000000000000000000000000000000000007bffffffffffffffffffffffffffffffffffffffffffffffffffffffff1916827bffffffffffffffffffffffffffffffffffffffffffffffffffffffff1916148061131957507f5b5e139f000000000000000000000000000000000000000000000000000000007bffffffffffffffffffffffffffffffffffffffffffffffffffffffff1916827bffffffffffffffffffffffffffffffffffffffffffffffffffffffff1916145b80611329575061132882611692565b5b9050919050565b60006002600083815260200190815260200160002060009054906101000a900473ffffffffffffffffffffffffffffffffffffffff169050919050565b80806113a65750600073ffffffffffffffffffffffffffffffffffffffff168273ffffffffffffffffffffffffffffffffffffffff1614155b156114da5760006113b684610955565b9050600073ffffffffffffffffffffffffffffffffffffffff168373ffffffffffffffffffffffffffffffffffffffff161415801561142157508273ffffffffffffffffffffffffffffffffffffffff168173ffffffffffffffffffffffffffffffffffffffff1614155b8015611434575061143281846107da565b155b1561147657826040517fa9fbf51f00000000000000000000000000000000000000000000000000000000815260040161146d9190611cfc565b60405180910390fd5b81156114d857838573ffffffffffffffffffffffffffffffffffffffff168273ffffffffffffffffffffffffffffffffffffffff167f8c5be1e5ebec7d5bd14f71427d1e84f3dd0314c0f7b2291e5b200ac8c7c3b92560405160405180910390a45b505b836004600085815260200190815260200160002060006101000a81548173ffffffffffffffffffffffffffffffffffffffff021916908373ffffffffffffffffffffffffffffffffffffffff16021790555050505050565b61153d8383836116fc565b6115f157600073ffffffffffffffffffffffffffffffffffffffff168373ffffffffffffffffffffffffffffffffffffffff16036115b257806040517f7e2732890000000000000000000000000000000000000000000000000000000081526004016115a99190611e12565b60405180910390fd5b81816040517f177e802f0000000000000000000000000000000000000000000000000000000081526004016115e89291906126c3565b60405180910390fd5b505050565b61160083836117bd565b61160d6000848484610f0a565b505050565b606060405180602001604052806000815250905090565b606061163482610955565b50600061163f611612565b9050600081511161165f576040518060200160405280600081525061168a565b80611669846118b6565b60405160200161167a92919061269f565b6040516020818303038152906040525b915050919050565b60007f01ffc9a7000000000000000000000000000000000000000000000000000000007bffffffffffffffffffffffffffffffffffffffffffffffffffffffff1916827bffffffffffffffffffffffffffffffffffffffffffffffffffffffff1916149050919050565b60008073ffffffffffffffffffffffffffffffffffffffff168373ffffffffffffffffffffffffffffffffffffffff16141580156117b457508273ffffffffffffffffffffffffffffffffffffffff168473ffffffffffffffffffffffffffffffffffffffff161480611775575061177484846107da565b5b806117b357508273ffffffffffffffffffffffffffffffffffffffff1661179b836109dd565b73ffffffffffffffffffffffffffffffffffffffff16145b5b90509392505050565b600073ffffffffffffffffffffffffffffffffffffffff168273ffffffffffffffffffffffffffffffffffffffff160361182f5760006040517f64a0ae920000000000000000000000000000000000000000000000000000000081526004016118269190611cfc565b60405180910390fd5b600061183d83836000610a34565b9050600073ffffffffffffffffffffffffffffffffffffffff168173ffffffffffffffffffffffffffffffffffffffff16146118b15760006040517f73c6ac6e0000000000000000000000000000000000000000000000000000000081526004016118a89190611cfc565b60405180910390fd5b505050565b6060600060016118c584611984565b01905060008167ffffffffffffffff8111156118e4576118e3611ea3565b5b6040519080825280601f01601f1916602001820160405280156119165781602001600182028036833780820191505090505b509050600082602001820190505b600115611979578080600190039150507f3031323334353637383961626364656600000000000000000000000000000000600a86061a8153600a858161196d5761196c6126ec565b5b04945060008503611924575b819350505050919050565b600080600090507a184f03e93ff9f4daa797ed6e38ed64bf6a1f01000000000000000083106119e2577a184f03e93ff9f4daa797ed6e38ed64bf6a1f01000000000000000083816119d8576119d76126ec565b5b0492506040810190505b6d04ee2d6d415b85acef81000000008310611a1f576d04ee2d6d415b85acef81000000008381611a1557611a146126ec565b5b0492506020810190505b662386f26fc100008310611a4e57662386f26fc100008381611a4457611a436126ec565b5b0492506010810190505b6305f5e1008310611a77576305f5e1008381611a6d57611a6c6126ec565b5b0492506008810190505b6127108310611a9c576127108381611a9257611a916126ec565b5b0492506004810190505b60648310611abf5760648381611ab557611ab46126ec565b5b0492506002810190505b600a8310611ace576001810190505b80915050919050565b6000604051905090565b600080fd5b600080fd5b60007fffffffff0000000000000000000000000000000000000000000000000000000082169050919050565b611b2081611aeb565b8114611b2b57600080fd5b50565b600081359050611b3d81611b17565b92915050565b600060208284031215611b5957611b58611ae1565b5b6000611b6784828501611b2e565b91505092915050565b60008115159050919050565b611b8581611b70565b82525050565b6000602082019050611ba06000830184611b7c565b92915050565b600081519050919050565b600082825260208201905092915050565b60005b83811015611be0578082015181840152602081019050611bc5565b60008484015250505050565b6000601f19601f8301169050919050565b6000611c0882611ba6565b611c128185611bb1565b9350611c22818560208601611bc2565b611c2b81611bec565b840191505092915050565b60006020820190508181036000830152611c508184611bfd565b905092915050565b6000819050919050565b611c6b81611c58565b8114611c7657600080fd5b50565b600081359050611c8881611c62565b92915050565b600060208284031215611ca457611ca3611ae1565b5b6000611cb284828501611c79565b91505092915050565b600073ffffffffffffffffffffffffffffffffffffffff82169050919050565b6000611ce682611cbb565b9050919050565b611cf681611cdb565b82525050565b6000602082019050611d116000830184611ced565b92915050565b611d2081611cdb565b8114611d2b57600080fd5b50565b600081359050611d3d81611d17565b92915050565b60008060408385031215611d5a57611d59611ae1565b5b6000611d6885828601611d2e565b9250506020611d7985828601611c79565b9150509250929050565b600080600060608486031215611d9c57611d9b611ae1565b5b6000611daa86828701611d2e565b9350506020611dbb86828701611d2e565b9250506040611dcc86828701611c79565b9150509250925092565b600060208284031215611dec57611deb611ae1565b5b6000611dfa84828501611d2e565b91505092915050565b611e0c81611c58565b82525050565b6000602082019050611e276000830184611e03565b92915050565b611e3681611b70565b8114611e4157600080fd5b50565b600081359050611e5381611e2d565b92915050565b60008060408385031215611e7057611e6f611ae1565b5b6000611e7e85828601611d2e565b9250506020611e8f85828601611e44565b9150509250929050565b600080fd5b600080fd5b7f4e487b7100000000000000000000000000000000000000000000000000000000600052604160045260246000fd5b611edb82611bec565b810181811067ffffffffffffffff82111715611efa57611ef9611ea3565b5b80604052505050565b6000611f0d611ad7565b9050611f198282611ed2565b919050565b600067ffffffffffffffff821115611f3957611f38611ea3565b5b611f4282611bec565b9050602081019050919050565b82818337600083830152505050565b6000611f71611f6c84611f1e565b611f03565b905082815260208101848484011115611f8d57611f8c611e9e565b5b611f98848285611f4f565b509392505050565b600082601f830112611fb557611fb4611e99565b5b8135611fc5848260208601611f5e565b91505092915050565b60008060008060808587031215611fe857611fe7611ae1565b5b6000611ff687828801611d2e565b945050602061200787828801611d2e565b935050604061201887828801611c79565b925050606085013567ffffffffffffffff81111561203957612038611ae6565b5b61204587828801611fa0565b91505092959194509250565b600067ffffffffffffffff82111561206c5761206b611ea3565b5b61207582611bec565b9050602081019050919050565b600061209561209084612051565b611f03565b9050828152602081018484840111156120b1576120b0611e9e565b5b6120bc848285611f4f565b509392505050565b600082601f8301126120d9576120d8611e99565b5b81356120e9848260208601612082565b91505092915050565b60008060006060848603121561210b5761210a611ae1565b5b600061211986828701611d2e565b935050602084013567ffffffffffffffff81111561213a57612139611ae6565b5b612146868287016120c4565b925050604084013567ffffffffffffffff81111561216757612166611ae6565b5b612173868287016120c4565b9150509250925092565b6000806040838503121561219457612193611ae1565b5b60006121a285828601611d2e565b92505060206121b385828601611d2e565b9150509250929050565b7f4e487b7100000000000000000000000000000000000000000000000000000000600052602260045260246000fd5b6000600282049050600182168061220457607f821691505b602082108103612217576122166121bd565b5b50919050565b60006060820190506122326000830186611ced565b61223f6020830185611e03565b61224c6040830184611ced565b949350505050565b7f4e487b7100000000000000000000000000000000000000000000000000000000600052601160045260246000fd5b600061228e82611c58565b91507fffffffffffffffffffffffffffffffffffffffffffffffffffffffffffffffff82036122c0576122bf612254565b5b600182019050919050565b600060408201905081810360008301526122e58185611bfd565b905081810360208301526122f98184611bfd565b90509392505050565b600081519050919050565b600082825260208201905092915050565b600061232982612302565b612333818561230d565b9350612343818560208601611bc2565b61234c81611bec565b840191505092915050565b600060808201905061236c6000830187611ced565b6123796020830186611ced565b6123866040830185611e03565b8181036060830152612398818461231e565b905095945050505050565b6000815190506123b281611b17565b92915050565b6000602082840312156123ce576123cd611ae1565b5b60006123dc848285016123a3565b91505092915050565b60008190508160005260206000209050919050565b60006020601f8301049050919050565b600082821b905092915050565b6000600883026124477fffffffffffffffffffffffffffffffffffffffffffffffffffffffffffffffff8261240a565b612451868361240a565b95508019841693508086168417925050509392505050565b6000819050919050565b600061248e61248961248484611c58565b612469565b611c58565b9050919050565b6000819050919050565b6124a883612473565b6124bc6124b482612495565b848454612417565b825550505050565b600090565b6124d16124c4565b6124dc81848461249f565b505050565b5b81811015612500576124f56000826124c9565b6001810190506124e2565b5050565b601f82111561254557612516816123e5565b61251f846123fa565b8101602085101561252e578190505b61254261253a856123fa565b8301826124e1565b50505b505050565b600082821c905092915050565b60006125686000198460080261254a565b1980831691505092915050565b60006125818383612557565b9150826002028217905092915050565b61259a82611ba6565b67ffffffffffffffff8111156125b3576125b2611ea3565b5b6125bd82546121ec565b6125c8828285612504565b600060209050601f8311600181146125fb57600084156125e9578287015190505b6125f38582612575565b86555061265b565b601f198416612609866123e5565b60005b828110156126315784890151825560018201915060208501945060208101905061260c565b8683101561264e578489015161264a601f891682612557565b8355505b6001600288020188555050505b505050505050565b600081905092915050565b600061267982611ba6565b6126838185612663565b9350612693818560208601611bc2565b80840191505092915050565b60006126ab828561266e565b91506126b7828461266e565b91508190509392505050565b60006040820190506126d86000830185611ced565b6126e56020830184611e03565b9392505050565b7f4e487b7100000000000000000000000000000000000000000000000000000000600052601260045260246000fdfea26469706673582212200687eb3eec16c3432327e28082517351bfecba5d3e7c648d9cecaad323f5565264736f6c63430008140033",
  "linkReferences": {},
  "deployedLinkReferences": {}
}